:100000000C94C8000C94F7000C94F7000C94F700C3
:100010000C94F7000C94F7000C94F7000C94F70084
:100020000C94F7000C94F7000C94F7000C94F70074
:100030000C94F7000C94F7000C94F7000C94F70064
:100040000C94F7000C94F7000C94F9000C94F70052
:100050000C94F7000C94F7000C94F7000C94F70044
:100060000C94F7000C94F7000C94F7000C94F70034
:100070000C94F7000C94F7000C942E010C94F700EC
:100080000C94F7000C94F7000C94F7006E616E006E
:10009000696E660000407A10F35A00A0724E18098B
:1000A0000010A5D4E80000E87648170000E40B54DF
:1000B000020000CA9A3B000000E1F50500008096AE
:1000C0009800000040420F000000A08601000000E0
:1000D000102700000000E80300000000640000009A
:1000E00000000A00000000000100000000002C7663
:1000F000D888DC674F0823DFC1DFAE59E1B1B7967E
:10010000E5E3E453C63AE651997696E8E6C28426DA
:10011000EB898C9B62ED407C6FFCEFBC9C9F40F2B6
:10012000BAA56FA5F490055A2AF75C936B6CF96732
:100130006DC11BFCE0E40D47FEF520E6B500D0EDF7
:10014000902E0300943577050080841E080000205F
:100150004E0A000000C80C333333330F986E1283FD
:100160001141EF8D2114893BE65516CFFEE6DB18D1
:10017000D1844B381BF77C1D901DA4BBE424203296
:1001800084725E228100C9F124ECA1E53D27EB0DCC
:1001900011241FBECFEFD0E1DEBFCDBF11E0A0E044
:1001A000B1E0E4EAFBE200E00BBF02C007900D9271
:1001B000A43EB107D9F713E0A4EEB1E001C01D924F
:1001C000A137B107E1F711E0C0E9D1E000E006C0D6
:1001D00022970109FE010BBF0E941C14CE38D107E3
:1001E00080E00807A9F70E94DA0C0C94D0150C9453
:1001F00000001F920F920FB60F920BB60F921124B0
:100200002F933F934F935F936F937F938F939F931E
:10021000AF93BF93EF93FF93CF93DF930F92CDB73D
:10022000DEB78CB18983698180EF91E00E94C509B6
:100230000F90DF91CF91FF91EF91BF91AF919F917F
:100240008F917F916F915F914F913F912F910F907F
:100250000BBE0F900FBE0F901F9018951F920F921C
:100260000FB60F9211248F939F93AF93BF93CF93A9
:10027000DF930F92CDB7DEB780919C00898389818F
:10028000813351F48AEA96EEA6E9B1E081509040BC
:10029000A040B040D9F700000F90DF91CF91BF91FF
:1002A000AF919F918F910F900FBE0F901F90189557
:1002B000CF93DF93DC011396ED91FC91149720818D
:1002C00015963C91159781E090E002C0880F991F28
:1002D0003A95E2F780958223808348E050E021E060
:1002E00030E0ED91FC911197708112968C911297EC
:1002F000E90102C0CC0FDD1F8A95E2F7CE0167FF4E
:1003000003C07C2B708303C0809587238083660F96
:100310001396ED91FC911497708115968C91159719
:10032000E90102C0CC0FDD1F8A95E2F77C2B7083B8
:100330001396ED91FC911497708115968C911597F9
:10034000E90102C0CC0FDD1F8A95E2F7CE0180954E
:10035000872380834150504009F0C3CFDF91CF9174
:100360000895FC01A681B7814C91808521E030E0A1
:10037000B90102C0660F771F8A95E2F7462B4C93AE
:1003800087E097E00197F1F700C00000A681B781F0
:100390008C91908502C0220F331F9A95E2F7209529
:1003A00028232C930895DC01ED91FC911197408155
:1003B00012965C9121E030E002C0220F331F5A9563
:1003C000E2F72095242320830E94B101B5EDBA9570
:1003D000F1F700000895DC01ED91FC911197408147
:1003E00012965C9121E030E002C0220F331F5A9533
:1003F000E2F7422B40830E94B101B5EDBA95F1F7C7
:1004000000000895CF93DF93EC01198662E00E940B
:100410005801CE010E94D301DF91CF910895CF936F
:10042000DF93EC016987460F642F0E945801CE01CB
:100430000E94D301DF91CF910895CF93DF93EC0118
:10044000E62FE150E33028F4F0E0E856FE4F8081DB
:1004500001C080E06987682F6058CE010E94580172
:10046000CE010E94D301DF91CF910895CF93DF9306
:10047000EC016A3049F46985633010F060E001C036
:100480006F5F0E941D0205C00E945801CE010E94AC
:10049000EB01DF91CF9108950F931F93CF93DF93DB
:1004A0008C01EB0103C0C8010E94360269916623EA
:1004B000D1F7DF91CF911F910F910895CF93DF93E3
:1004C000CDB7DEB7C050D1400FB6F894DEBF0FBE37
:1004D000CDBF9E01275F3E4FCE0101966FEF70E0CA
:1004E000C95FDE4F48815981C750D1400E943A15FB
:1004F000CB5FDE4F88819981C550D140BE016F5FCF
:100500007F4F0E944C02C050DF4F0FB6F894DEBF01
:100510000FBECDBFDF91CF910895CF93DF93EC0154
:10052000198661E00E945801CE010E94D301DF913B
:10053000CF910895CF93DF93EC0119868FEF99EF58
:100540000197F1F700C00000CE0160E30E9458015E
:10055000CE010E94D3018FE19EE40197F1F700C024
:100560000000CE0160E30E945801CE010E94D30139
:100570008FED91E00197F1F700C00000CE0160E33C
:100580000E945801CE010E94D3018FED91E00197A6
:10059000F1F700C00000CE0168E30E945801CE01CF
:1005A0000E94D301CE0168E00E945801CE010E9452
:1005B000D301CE0161E00E945801CE010E94D30117
:1005C0008FE39FE10197F1F700C00000CE0166E0E4
:1005D0000E945801CE010E94D301CE016CE00E941E
:1005E0005801CE010E94D301DF91CF910895CF929F
:1005F000EF92FF920F93FC01DB01718360834283D2
:10060000348323830583F782E682C0864C918281FE
:1006100021E030E0B90102C0660F771F8A95E2F74A
:10062000CB01809548234C93A381B4814C91858163
:10063000B90102C0660F771F8A95E2F7CB0180955A
:1006400084238C93A681B7814C918085B90102C027
:10065000660F771F8A95E2F7CB01809584238C93F0
:10066000A081B1814E918281B90102C0660F771FCE
:100670008A95E2F7462B4C93A381B4814E918581F4
:10068000B90102C0660F771F8A95E2F7462B4C939B
:10069000A681B7818E91908502C0220F331F9A9553
:1006A000E2F7822B8C93CF010E949A020F91FF9068
:1006B000EF90CF900895DC011296ED91FC91139785
:1006C00020811E963C911E9781E090E002C0880F29
:1006D000991F3A95E2F7282B20830895DC011296A2
:1006E000ED91FC91139720811E963C911E9781E01D
:1006F00090E002C0880F991F3A95E2F78095822317
:1007000080830895DC011496ED91FC91159720816A
:100710001F963C911F9781E090E002C0880F991FBF
:100720003A95E2F7282B20830895DC011496ED9189
:10073000FC91159720811F963C911F9781E090E0D6
:1007400002C0880F991F3A95E2F780958223808333
:100750000895CF93DF93EC010E9482038AE18A958A
:10076000F1F700C0CE010E949503DF91CF9108956B
:1007700040E050E021E030E070E090E00AC0F90194
:10078000E89F9001E99F300DF89F300D11244F5FD5
:100790005F4F461757079CF3C9010895BF92CF9248
:1007A000DF92EF92FF920F931F93CF93DF93EC01B1
:1007B000B62E8FE396E00197F1F700C00000CE015E
:1007C000442319F00E945B0302C00E946E036E0175
:1007D0008E0162E070E0A1E0EA2EF12CF801A68122
:1007E000B7812C91FE01E60FF71F8685A70102C095
:1007F000440F551F8A95E2F7CA01809582238C9396
:1008000040E050E081E090E09B012250304004C085
:10081000880F991F4F5F5F4F42175307CCF38295A4
:10082000807F8B2181F0F801A681B7812C91FE0198
:10083000E60FF71F8685A70102C0440F551F8A9552
:10084000E2F7242B2C936F5F7F4F0E5F1F4F6630B4
:10085000710521F68FE891E00197F1F700C00000E3
:10086000CE010E94A90362E070E001E010E0F60111
:10087000A681B7812C91FE01E60FF71F8685A8019E
:1008800002C0440F551F8A95E2F7CA018095822362
:100890008C9340E050E081E090E09B01225030409A
:1008A00004C0880F991F4F5F5F4F42175307CCF367
:1008B0008B2181F0F601A681B7812C91FE01E60F14
:1008C000F71F8685A80102C0440F551F8A95E2F7DD
:1008D000242B2C936F5F7F4F82E090E0C80ED91ECF
:1008E0006630710521F6EFE8F1E03197F1F700C0CD
:1008F0000000CE010E94A903DF91CF911F910F91BB
:10090000FF90EF90DF90CF90BF90089540E00E945D
:10091000CE0308956F927F928F92AF92BF92CF9243
:10092000EF92FF920F931F93CF93DF9300D000D0ED
:10093000CDB7DEB73C0149830A83CB828C82DC01D0
:1009400013967C936E93129789811E968C931E97B3
:1009500015963C932E9314978A811F968C931F971C
:100960001796FC92EE9216978B8150968C93509727
:100970001996BC92AE9218978C8151968C93519790
:100980008B899C891B969C938E931A978D8952967E
:100990008C9352978E899F891D969C938E931C975A
:1009A000888D53968C93A30120E030E001E010E0A5
:1009B000FA01A281B3816E91F301E20FF31F8685E4
:1009C000F80102C0EE0FFF1F8A95E2F76E2B6C93C1
:1009D0002F5F3F4F4E5F5F4F2630310549F78FEF56
:1009E00096E7A1E081509040A040E1F700C00000F0
:1009F000C30160E30E948604C3010E94A903AFE122
:100A0000BEE41197F1F700C00000C30160E30E944B
:100A10008604C3010E94A903EFEDF1E03197F1F7DD
:100A200000C00000C30160E30E948604C3010E946D
:100A3000A9038FED91E00197F1F700C00000C30119
:100A400068E20E948604C3010E94A903C30168E012
:100A50000E948604C3010E94A903C30161E00E94B1
:100A60008604C3010E94A903AFE3BFE11197F1F728
:100A700000C00000C30166E00E948604C3010E941A
:100A8000A903C3016CE00E948604C3010E94A9036C
:100A90000F900F900F900F90DF91CF911F910F91BA
:100AA000FF90EF90CF90BF90AF908F907F906F901E
:100AB00008950895E62FE150E33028F4F0E0E5567C
:100AC000FE4F208101C020E0FC0160831182622F73
:100AD00060580E94860408956A3061F4FC016081C8
:100AE00071816330710514F060E001C06F5F0E9496
:100AF0005A05089541E00E94CE0308950F931F9375
:100B0000CF93DF938C01EB0103C0C8010E946C05F9
:100B100069916623D1F7DF91CF911F910F910895CD
:100B2000CF93DF93CDB7DEB7C050D1400FB6F89466
:100B3000DEBF0FBECDBF9E01275F3E4FCE010196A7
:100B40006FEF70E0C95FDE4F48815981C750D140D7
:100B50000E943A15CB5FDE4F88819981C550D14004
:100B6000BE016F5F7F4F0E947E05C050DF4F0FB602
:100B7000F894DEBF0FBECDBFDF91CF910895FC0189
:100B80001182108261E00E9486048FEC97E0019749
:100B9000F1F700C000000895FC011182108262E0AC
:100BA0000E9486040895FC01DB01718360835383F6
:100BB000428325833C9181E090E002C0880F991F19
:100BC0002A95E2F7382B3C930895FC016483A281B7
:100BD000B38135812C9181E090E002C0880F991F8C
:100BE0003A95E2F7662319F0282B2C930895809507
:100BF00082238C93089561E0FC012481621B0E9492
:100C0000E5050895862F90E0613410F0C7970895A8
:100C1000C09708952F923F925F926F927F928F922A
:100C20009F92AF92BF92CF92DF92EF92FF920F937B
:100C30001F93CF93DF931B01552466240DEC8CEC9E
:100C4000B82E9CECA92E2DE3922ED0E010E0882443
:100C50007724CC24DD24760159C0CD3209F451C06B
:100C6000CB3209F453C0CE3209F44EC06620B1F441
:100C7000C701B6012AE030E040E050E00E94DB13FB
:100C80006B017C018C2F90E0C097AA2797FDA0955F
:100C9000BA2FC80ED91EEA1EFB1E38C06C2F70E09A
:100CA00060537040882777FD8095982F0E94F00E42
:100CB0009B01AC01802F9B2DAA2DB92DBC01CD012C
:100CC0000E947C0F9B01AC018D2F912FA82DB72D79
:100CD000BC01CD010E94F10DD62F172F882E792E41
:100CE000802F9B2DAA2DB92DBC01CD0120E030E035
:100CF00040E251E40E94550E062FB72EA82E992EE1
:100D000005C05524539402C066246394F101C19137
:100D10001F01CC2309F0A1CFC701B6010E94F00E3C
:100D20009B01AC018D2F912FA82DB72DBC01CD01BA
:100D30000E94F10D462F572F682F792FDB01CA0132
:100D40005110B058BC01CD01DF91CF911F910F918F
:100D5000FF90EF90DF90CF90BF90AF909F908F90DB
:100D60007F906F905F903F902F900895CF93DF9387
:100D7000EB01DA01FD018991882329F09D919923E6
:100D800011F08917B9F390E02081821B9109DF915E
:100D9000CF9108956F927F928F929F92AF92BF9260
:100DA000CF92DF92EF92FF920F931F93CF93DF9337
:100DB000EC01FC01E25DFE4F8081282F30E08134A0
:100DC00018F02753304002C02053304044E0220F37
:100DD000331F4A95E1F7FE01E15DFE4F4081842F0C
:100DE00090E0413410F0C79701C0C097FE01E25C6B
:100DF000FE4F820F931F208131812817390709F098
:100E0000B5C232E0632E712C6C0E7D1ECE01B30193
:100E10004EE951E00E94B606009709F013C1FE01A9
:100E2000E45AFF4F8081803309F418C12989822F49
:100E300090E0213410F0C79701C0C097880F282F89
:100E4000220F220F280F3A89832F90E0313410F0BF
:100E5000C79701C0C097FE01EF5AFE4F922F980F1F
:100E600090832B89822F90E0213410F0C79701C026
:100E7000C097880F282F220F220F280F3C89832F1D
:100E800090E0313410F0C79701C0C097FE01EE5AD0
:100E9000FE4F922F980F90832D89822F90E021345E
:100EA00010F0C79701C0C097880F282F220F220F7C
:100EB000280F3E89832F90E0313410F0C79701C08E
:100EC000C097FE01ED5AFE4F922F980F9083BE01FE
:100ED000605E7F4FCE010E940A066B017C018E018D
:100EE000035B1E4FF8016083718382839383BE018D
:100EF000625C7F4FCE010E940A06AB01BC019E01DD
:100F0000275B3E4FF90140835183628373838FA532
:100F1000833541F4D701C601B058F801808391832D
:100F2000A283B383FE01E35BFF4F8081873531F4F9
:100F30007058F9014083518362837383F801C08044
:100F4000D180E280F380C701B60120E030E048ECB8
:100F500052E40E94550E0E94DF0F4B015C0120E01D
:100F600030E048EC52E40E947C0F9B01AC01C701C9
:100F7000B6010E94F00D20E030E040E752E40E940C
:100F8000550E9B01AC01C501B4010E94F10DDC01BD
:100F9000CB01F80180839183A283B3838E01075B29
:100FA0001E4FF801C080D180E280F380C701B601F6
:100FB00020E030E048EC52E40E94550E0E94DF0F22
:100FC0004B015C0120E030E048EC52E40E947C0FD1
:100FD0009B01AC01C701B6010E94F00D20E030E09A
:100FE00040E752E40E94550E9B01AC01C501B401DB
:100FF0000E94F10DDC01CB01F80180839183A28373
:10100000B383BE0165597F4FCE010E940A068E014F
:10101000095A1E4F0E94BD0EDC01CB01F8019183DD
:101020008083BE0167577F4FCE010E940A06DC0114
:10103000CB01FE01E75AFE4F80839183A283B383E5
:1010400081E08983CE01B30145EA51E00E94B606F2
:10105000009709F08BC188A1863599F4FE01E35B06
:10106000FE4F80E090E0DC0180839183A283B38314
:10107000FE01E75BFE4F80839183A283B3831982D5
:1010800075C12989822F90E0213410F0C79701C0E3
:10109000C097880F282F220F220F280F3A89832FFD
:1010A00090E0313410F0C79701C0C097FE01EF5AAD
:1010B000FE4F922F980F90832B89822F90E021343E
:1010C00010F0C79701C0C097880F282F220F220F5A
:1010D000280F3C89832F90E0313410F0C79701C06E
:1010E000C097FE01EE5AFE4F922F980F90832D89E4
:1010F000822F90E0213410F0C79701C0C097880F6D
:10110000282F220F220F280F3E89832F90E03134A1
:1011100010F0C79701C0C097FE01ED5AFE4F922F05
:10112000980F9083BE01615D7F4FCE010E940A0639
:101130006B017C018E01035B1E4FF801608371839C
:1011400082839383BE01635B7F4FCE010E940A06B8
:10115000AB01BC019E01275B3E4FF90140835183E7
:10116000628373838EAD833541F4D701C601B058D5
:10117000F80180839183A283B383FE01E45AFF4F79
:101180008081873531F47058F9014083518362833F
:101190007383F801C080D180E280F380C701B6017B
:1011A00020E030E048EC52E40E94550E0E94DF0F30
:1011B0004B015C0120E030E048EC52E40E947C0FDF
:1011C0009B01AC01C701B6010E94F00D20E030E0A8
:1011D00040E752E40E94550E9B01AC01C501B401E9
:1011E0000E94F10DDC01CB01F80180839183A28381
:1011F000B3838E01075B1E4FF801C080D180E2806F
:10120000F380C701B60120E030E048EC52E40E94D0
:10121000550E0E94DF0F4B015C0120E030E048ECEE
:1012200052E40E947C0F9B01AC01C701B6010E94F1
:10123000F00D20E030E040E752E40E94550E9B01A3
:10124000AC01C501B4010E94F10DDC01CB01F80134
:1012500080839183A283B383BE0165597F4FCE0102
:101260000E940A068E01035A1E4F26E53EE04DEE0F
:101270005FE30E94550EDC01CB01F801808391836E
:10128000A283B383BE0166587F4FCE010E940A0637
:10129000DC01CB01FE01EF59FE4F80839183A283D5
:1012A000B383FE01E757FF4F2081822F90E0213466
:1012B00010F0C79701C0C097880F282F220F220F68
:1012C000280FFE01E657FF4F3081832F90E0313425
:1012D00010F0C79701C0C097FE01EC5AFE4F922F45
:1012E000980F9083FE01E557FF4F2081822F90E0F9
:1012F000213410F0C79701C0C097880F282F220F04
:10130000220F280FFE01E457FF4F3081832F90E01A
:10131000313410F0C79701C0C097FE01EB5AFE4F61
:10132000922F980F9083FE01E357FF4F2081822F69
:1013300090E0213410F0C79701C0C097880F282F84
:10134000220F220F280FFE01E257FF4F3081832F1B
:1013500090E0313410F0C79701C0C097FE01EA5AFF
:10136000FE4F922F980F908381E08983DF91CF9178
:101370001F910F91FF90EF90DF90CF90BF90AF90B3
:101380009F908F907F906F900895EF92FF920F93B0
:101390001F93CF93DF93EC01643219F581E08883CA
:1013A000FE01E35CFE4F1082FE01E25CFE4F118203
:1013B0001082FE01E05CFE4F1082FE01EF5BFE4FEB
:1013C00011821082FE01ED5BFE4F11821082FE0140
:1013D000EB5BFE4F11821082FE01E95BFE4F118232
:1013E00010828881882309F4A9C06D3011F06A3019
:1013F00099F5DE01AD5BBE4F4D915C911197FE01F9
:10140000E95BFE4F20813181FE01EB5BFE4F808165
:101410009181281B390BFA0114E0EE0FFF1F1A957A
:10142000E1F7E41BF50BEC0FFD1FE20FF31F128237
:101430004F5F5F4F4D935C93FE01EF5BFE4F01905A
:10144000F081E02DEC0FFD1FE25DFE4F108218824F
:10145000CE010E94CA0672C0FE01E35CFE4F80818D
:10146000882319F06A3209F410828081882359F0A8
:10147000FE01E25CFE4F862F90E0208131818227C1
:10148000932791838083643229F4FE01E35CFE4F4D
:1014900081E08083FE01E05CFE4F8081882381F043
:1014A000DE01AF5BBE4F8D919C911197FE01E80F5D
:1014B000F91FE25DFE4F6083019611969C938E9317
:1014C0006A3229F4FE01E05CFE4F81E080838E01E8
:1014D0000D5B1E4FF80120813181DE01A95BBE4FFB
:1014E0004D915C91119775E4E72E71E0F72EEC0EAB
:1014F000FD1EF70180819181FA01E81BF90BCF01F4
:10150000F90174E0EE0FFF1F7A95E1F7E21BF30B90
:10151000EC0FFD1FE80FF91F62836C3251F4128249
:10152000C9010196F80191838083F70151834083BB
:1015300005C04F5F5F4F11965C934E93CD5BDE4FBE
:1015400088819981DF91CF911F910F91FF90EF904A
:101550000895FC0181810895FC01EF5AFE4F8081BE
:1015600090E00895FC01EE5AFE4F808190E00895CE
:10157000FC01ED5AFE4F808190E00895FC01EC5A89
:10158000FE4F808190E00895FC01EB5AFE4F808170
:1015900090E00895FC01EA5AFE4F808190E00895A2
:1015A000FC01E35BFE4F5081418132812381852F15
:1015B000942FA32FB22FBC01CD010895FC01E75B4E
:1015C000FE4F5081418132812381852F942FA32F9B
:1015D000B22FBC01CD010895FC01E95AFE4F808174
:1015E00091810895FC01E75AFE4F5081418132817B
:1015F0002381852F942FA32FB22FBC01CD010895F5
:10160000FC01E35AFE4F5081418132812381852FB5
:10161000942FA32FB22FBC01CD010895FC01EF59E7
:10162000FE4F5081418132812381852F942FA32F3A
:10163000B22FBC01CD010895FC01DB0171836083F1
:101640005383428325833C9181E090E002C0880F60
:10165000991F2A95E2F7809583238C930895FC01C6
:10166000A281B3812C9130E0058002C03595279589
:101670000A94E2F7822F81700895FF920F931F93CF
:10168000CF93DF93EC01F22E798368835B834A83E7
:10169000FB01EE0FFF1FE60FF71FEE0FFF1FEE0F10
:1016A000FF1FE453FE4FA281B381FB0114E0EE0F54
:1016B000FF1F1A95E1F7E455FE4F01E010E0980195
:1016C000008402C0220F331F0A94E2F7C80106808B
:1016D00002C0880F991F0A94E2F7822B8C938881AD
:1016E0009981FC01EE0FFF1FE80FF91FEE0FFF1F9E
:1016F000EE0FFF1FE453FE4FA481B581FC0124E0EF
:10170000EE0FFF1F2A95E1F7E455FE4F9801048480
:1017100002C0220F331F0A94E2F7C801028402C0FC
:10172000880F991F0A94E2F7822B8C93CA019C01BF
:10173000442737FD4095542F60E472E48FE090E039
:101740000E94FA13215030403D832C838881998177
:10175000FC01EE0FFF1FE80FF91FEE0FFF1FEE0F4A
:10176000FF1FE453FE4F0084F185E02D3083888114
:101770009981FC01EE0FFF1FE80FF91FEE0FFF1F0D
:10178000EE0FFF1FE453FE4F0284F385E02D8C81A2
:101790008083FF2011F188819981FC01EE0FFF1FEA
:1017A000E80FF91FEE0FFF1FEE0FFF1FE453FE4F70
:1017B0000280F381E02D2081DC0144E0AA0FBB1FF1
:1017C0004A95E1F7A455BE4F0C9002C0000F111FBF
:1017D0000A94E2F7202B20837894DF91CF911F9118
:1017E0000F91FF900895DC018D919C91AC01440F05
:1017F000551FFA01E80FF91FEE0FFF1FEE0FFF1F35
:10180000E453FE4FA081B181FC0134E0EE0FFF1FD5
:101810003A95E1F7E455FE4F72812C9130E0072EA6
:1018200002C0359527950A94E2F720FFF6CF840F82
:10183000951F880F991F880F991F84539E4FDC01B5
:101840001696ED91FC91179760830895CF92DF92E1
:10185000EF92FF920F931F93CF93DF936C01EA01F6
:101860008FEF4F3F580739F4EB0109900020E9F75B
:101870002197C61BD70B7B0100E010E008C0F701E1
:1018800061917F01C6010E94F30B0F5F1F4F0C1780
:101890001D07ACF3F60180819181FC01EE0FFF1F63
:1018A000E80FF91FEE0FFF1FEE0FFF1FE453FE4F6F
:1018B000A081B181FC0164E0EE0FFF1F6A95E1F7A2
:1018C000E455FE4F26858C9190E0022E02C095953E
:1018D00087950A94E2F780FFF6CFDF91CF911F91B1
:1018E0000F91FF90EF90DF90CF900895CF93DF930B
:1018F000CDB7DEB7C050D2400FB6F894DEBF0FBEF2
:10190000CDBF9E01275F3D4FCE0101966FEF71E085
:10191000C95FDD4F48815981C750D2400E943A15B6
:10192000CB5FDD4F88819981C550D240BE016F5F8A
:101930007F4F4FEF5FEF0E94260CC050DE4F0FB677
:10194000F894DEBF0FBECDBFDF91CF910895DC01CB
:101950008D919C91AC01440F551FFA01E80FF91FBE
:10196000EE0FFF1FEE0FFF1FE453FE4FA081B1816A
:10197000FC0134E0EE0FFF1F3A95E1F7E455FE4F0E
:1019800064812C9130E0062E02C0359527950A948B
:10199000E2F720FFF6CF840F951F880F991F880F5D
:1019A000991F84539E4FDC011696ED91FC91179779
:1019B000808108958BE693E06AE370E04BE350E0AA
:1019C00020E00E94D30585E693E06AE370E04BE3F4
:1019D00050E021E00E94D3058BE693E060E00E9496
:1019E000E50585E693E061E00E94E5058AEE91E079
:1019F00060E070E040EC52E121E00E943D0B84EE9B
:101A000091E061E070E040E855E221E00E943D0B8A
:101A100085E593E065E370E040E025E330E001E038
:101A2000E5E3EE2EF12CF2E0CF2E0E94F70285E5E1
:101A300093E00E94020285E593E060E071E00E947D
:101A40004C028FEF9FE4A3EC81509040A040E1F75F
:101A500000C00000442455240894411C511C85E515
:101A600093E00E94020280EF91E00E94A90A88237D
:101A700009F499C080EF91E040FC3EC00E94D00A7A
:101A80006B017C0180EF91E00E94EC0A8C0180EFF9
:101A900091E00E94DE0A4B015C0180EF91E00E9420
:101AA000F20AADB7BEB750970FB6F894BEBF0FBEDF
:101AB000ADBFCDB7DEB7219625E533E0EDB7FEB774
:101AC00032832183A4E2B1E0BB83AA83CC82DD828E
:101AD000EE82FF82198708878A869B86AC86BD8640
:101AE0000E94BD0EDC01CB019F878E870E945E02A3
:101AF000EDB7FEB7709651C00E94000B4B015C0120
:101B000080EF91E00E940E0B6B017C0180EF91E071
:101B10000E94AC0AEC0180EF91E00E94B20A8C01B5
:101B200080EF91E00E94BE0A3C0180EF91E00E94AC
:101B3000C40A1C0180EF91E00E94CA0A2DB73EB78B
:101B4000265130400FB6F8943EBF0FBE2DBFEDB703
:101B5000FEB7319625E533E0ADB7BEB712963C939C
:101B60002E931197A0E4B1E0B383A283848295827F
:101B7000A682B782C086D186E286F386D587C487DF
:101B800017870687718A608A338A228A958B848BAD
:101B90000E945E02EDB7FEB776960FB6F894FEBFD0
:101BA0000FBEEDBF06C085E593E061E771E00E94DE
:101BB0004C028BE693E00E94FB0585E693E00E94D1
:101BC000FB058FEF97EAA1E681509040A040E1F736
:101BD00000C0000041CF1092F0011092F101089571
:101BE0005058BB27AA270ED04DC13ED130F043D16B
:101BF00020F031F49F3F11F41EF433C10EF4E09550
:101C0000E7FB29C1E92F4FD180F3BA1762077307A9
:101C10008407950718F071F49EF567C10EF4E095FE
:101C20000B2EBA2FA02D0B01B90190010C01CA0196
:101C3000A0011124FF27591B99F0593F50F4503E41
:101C400068F11A16F040A22F232F342F4427585F33
:101C5000F3CF469537952795A795F0405395C9F74B
:101C60007EF41F16BA0B620B730B840BBAF0915003
:101C7000A1F0FF0FBB1F661F771F881FC2F70EC0A2
:101C8000BA0F621F731F841F48F487957795679575
:101C9000B795F7959E3F08F0B3CF9395880F08F05E
:101CA0009927EE0F9795879508950CD0EBC0E3D058
:101CB00040F0DAD030F021F45F3F19F0CCC0511180
:101CC00015C1CFC0F0D098F39923C9F35523B1F3D0
:101CD000951B550BBB27AA2762177307840738F09B
:101CE0009F5F5F4F220F331F441FAA1FA9F333D0FA
:101CF0000E2E3AF0E0E830D091505040E695001CAE
:101D0000CAF729D0FE2F27D0660F771F881FBB1F69
:101D1000261737074807AB07B0E809F0BB0B802D43
:101D2000BF01FF2793585F4F2AF09E3F510568F08F
:101D300092C0DCC05F3FECF3983EDCF3869577956C
:101D40006795B795F7959F5FC9F7880F911D969591
:101D5000879597F90895E1E0660F771F881FBB1FED
:101D6000621773078407BA0720F0621B730B840B9A
:101D7000BA0BEE1F88F7E095089504D06894B1116E
:101D8000B5C0089598D088F09F5790F0B92F992743
:101D9000B751A0F0D1F0660F771F881F991F1AF076
:101DA000BA95C9F712C0B13081F09FD0B1E0089563
:101DB0009CC0672F782F8827B85F39F0B93FCCF3E4
:101DC000869577956795B395D9F73EF4909580956C
:101DD000709561957F4F8F4F9F4F0895E89409C08C
:101DE00097FB3EF490958095709561957F4F8F4F4E
:101DF0009F4F9923A9F0F92F96E9BB279395F69564
:101E0000879577956795B795F111F8CFFAF4BB0FE1
:101E100011F460FF1BC06F5F7F4F8F4F9F4F16C045
:101E2000882311F096E911C0772321F09EE8872FCF
:101E3000762F05C0662371F096E8862F70E060E08B
:101E40002AF09A95660F771F881FDAF7880F969504
:101E5000879597F9089597F99F6780E870E060E0AB
:101E600008959FEF80EC089500240A941616170633
:101E700018060906089500240A941216130614067B
:101E800005060895092E0394000C11F4882352F0DE
:101E9000BB0F40F4BF2B11F460FF04C06F5F7F4F96
:101EA0008F4F9F4F089557FD9058440F551F59F07D
:101EB0005F3F71F04795880F97FB991F61F09F3F37
:101EC00079F087950895121613061406551FF2CF60
:101ED0004695F1DF08C0161617061806991FF1CFB0
:101EE00086957105610508940895E894BB276627D7
:101EF0007727CB0197F908950BD0C4CFB5DF28F031
:101F0000BADF18F0952309F0A6CFABCF1124EECF9E
:101F1000CADFA0F3959FD1F3950F50E0551F629F44
:101F2000F001729FBB27F00DB11D639FAA27F00D32
:101F3000B11DAA1F649F6627B00DA11D661F829F59
:101F40002227B00DA11D621F739FB00DA11D621F3E
:101F5000839FA00D611D221F749F3327A00D611D5B
:101F6000231F849F600D211D822F762F6A2F11243D
:101F70009F5750408AF0E1F088234AF0EE0FFF1F90
:101F8000BB1F661F771F881F91505040A9F79E3FC7
:101F9000510570F060CFAACF5F3FECF3983EDCF3C1
:101FA000869577956795B795F795E7959F5FC1F704
:101FB000FE2B880F911D9695879597F908952FD040
:101FC00020F09F3708F492CF01C01BC0882371F422
:101FD000772321F09850872B762F07C0662311F4C2
:101FE00099270DC09051862B70E060E02AF09A95F9
:101FF000660F771F881FDAF7880F9695879597F9F0
:1020000008959F3F31F0915020F48795779567951B
:10201000B795880F911D9695879597F908954BDF91
:10202000A0F0BEE7B91788F4BB279F3860F41616F6
:10203000B11D672F782F8827985FF7CF8695779502
:102040006795B11D93959639C8F308952F923F92E5
:102050004F925F926F927F928F929F92AF92BF92B8
:10206000CF92DF92EF92FF920F931F93CF93DF9364
:10207000CDB7DEB765970FB6F894DEBF0FBECDBF04
:102080004C017F876E87FC0117821682838181FD58
:1020900004C076C34C855D8504C01E010894211CD4
:1020A000311CF4019381EE85FF8593FD859193FFAB
:1020B0008191FF87EE87882309F45EC3853241F45E
:1020C00093FD859193FF8191FF87EE87853259F4C7
:1020D00090E0B4014C8B5D8B0E940E154C895D899C
:1020E0005D874C87D7CFFF24DD2410E01032B0F499
:1020F0008B3269F08C3228F4803251F0833271F4E3
:102100000BC08D3239F0803349F411602CC012605D
:10211000146029C0186027C0106125C017FD2EC0AB
:10212000282F20532A3098F416FF08C08F2D880FCF
:10213000F82EFF0CFF0CF80EF20E15C08D2D880F37
:10214000D82EDD0CDD0CD80ED20E10620CC08E32F3
:1021500021F416FD11C3106406C08C3611F410680A
:1021600002C0883659F4EE85FF8593FD859193FF73
:102170008191FF87EE87882309F0B8CF982F955477
:10218000933018F41061805E06C0982F95569330F6
:1021900008F0A2C11F7E16FD02C0E6E0FE2E1F73EE
:1021A000853611F4106406C0863611F4106802C03A
:1021B000F110FA9417FF07C0FBE3FF1548F0EF2C6E
:1021C000E39427E00DC027E02F1530F02F2D07C036
:1021D00027E07CE3E72E04C027E067E0F62EEE243C
:1021E000CA0104969D878C87FA0160817181828182
:1021F0009381A1010E2D0E9420145C01C9802C2D19
:1022000030E0398B288BC0FE03C0388933FF06C00D
:1022100011FD06C012FF06C000E205C00DE203C0BA
:102220000BE201C000E0888999898C70907000975A
:1022300009F43CC0002311F084E001C083E08D1557
:1022400058F4D81A13FD09C080E290E0B4010E944E
:102250000E15DA94C9F701C0DD24002329F0802F80
:1022600090E0B4010E940E15888983FD05C030E915
:10227000E32E30E0F32E11C02CE8E22E20E0F22E07
:102280000CC00115110509F0805290E0B4010E94C4
:102290000E150894E11CF11C04C0012F10E0007120
:1022A0001070F7018491882361F763C217FF0EC095
:1022B000EA0CF889F4FF04C08A81813309F4EA94B6
:1022C0001E144CF528E02E1548F12CC016FD2AC02E
:1022D0008F2D90E08A159B0544F03CEFA3163FEF4D
:1022E000B3061CF0106801C0FA94FF2049F0E2E048
:1022F000F0E0EC0FFD1FEF0DF11D80818033A1F3A5
:1023000017FF10C0EF2CE3948F2D90E0A816B906AC
:1023100044F4FA1807C0EE24E39404C098E0E92ED0
:1023200001C0FF2417FF07C01A141B043CF49501D9
:102330002F5F3F4F05C025E030E002C021E030E0D4
:10234000002311F02F5F3F4FFF2029F08F2D90E0E9
:102350000196280F391F8D2D90E02817390714F4A6
:10236000D21A01C0DD24612E7724C30189709070D8
:10237000009749F406C080E290E0B4010E940E1577
:10238000DA94DD20C1F7002329F0802F90E0B4011A
:102390000E940E1563FC09C006C080E390E0B40102
:1023A0000E940E15DA94DD20C1F717FF48C08501A1
:1023B000B7FE02C000E010E06624772495012E19D4
:1023C00031093B8B2A8B2501401A510A420C531CC0
:1023D0006F2D70E0EE24FF24E61AF70A3FEF0F3F5F
:1023E000130729F48EE290E0B4010E940E15A016A6
:1023F000B10654F02A893B89201731072CF4F201E9
:10240000E60DF71D818101C080E301501040089462
:10241000611C711C0E151F052CF090E0B4010E9488
:102420000E15DCCF0A151B0541F49A81963320F472
:10243000953319F4388934FF81E390E049C08A81EB
:10244000813311F09FEEC92290E0B4010E940E1575
:10245000FF2089F08EE290E0B4010E940E1512E098
:10246000F101E10FF11D1F5F808190E0B4010E9436
:102470000E15FA94A9F764FE03C085E490E002C04B
:1024800085E690E0B4010E940E15B7FC05C0A114CA
:10249000B10441F4C4FE06C0B094A194B108B39451
:1024A0008DE201C08BE290E0B4010E940E1580E342
:1024B00005C08F5FE6EFFFEFAE0EBF1EFAE0AF166E
:1024C000B104BCF790E0B4010E940E15C501C0969E
:1024D000B4010E940E154DC1833631F0833789F067
:1024E000833509F059C022C09A012E5F3F4F3D87C6
:1024F0002C87FA018081898381E0E82EF12C51013B
:1025000013C09A012E5F3F4F3D872C87FA01A080B0
:10251000B18016FF03C06F2D70E002C06FEF7FEF38
:10252000C5010E9403157C011F7714C09A012E5F1C
:102530003F4F3D872C87FA01A080B18016FF03C072
:102540006F2D70E002C06FEF7FEFC5010E94F8149D
:102550007C01106813FD1CC006C080E290E0B4014D
:102560000E940E15DA948D2D90E0E816F906A8F376
:102570000FC0F50117FD859117FF81915F0190E074
:10258000B4010E940E15D110DA940894E108F10804
:10259000E114F10471F7EDC0843611F0893671F55C
:1025A0009A0117FF0AC02C5F3F4F3D872C87FA0125
:1025B00080819181A281B3810BC02E5F3F4F3D8707
:1025C0002C87FA0180819181AA2797FDA095BA2FC7
:1025D000012F0F76B7FF08C0B095A0959095819513
:1025E0009F4FAF4FBF4F0068BC01CD01A1012AE052
:1025F00030E00E947215E82EE21841C0853721F4C0
:102600001F7E2AE030E020C0197F8F36A9F0803786
:1026100020F4883509F0B0C00BC0803721F088372E
:1026200009F0AAC001C0106114FF09C0146007C0FE
:1026300014FF08C0166006C028E030E005C020E1A5
:1026400030E002C020E132E0CA0117FF09C0049661
:102650009D878C87FA01608171818281938108C096
:1026600002969D878C87FA016081718180E090E0FD
:10267000A1010E947215E82EE218012F0F7706FFC4
:1026800009C00E7FEF1430F404FF06C002FD04C041
:102690000F7E02C01E2D01C01F2D802F90E004FF71
:1026A0000CC0FE01EE0DF11D2081203311F4097ED6
:1026B00009C002FF06C01E5F05C0867890700097B3
:1026C00009F01F5FA02EBB2403FD12C000FF0DC048
:1026D000FE2C1D1550F4FD0CF11A1D2D06C080E2D4
:1026E00090E0B4010E940E151F5F1D15C0F304C0D9
:1026F0001D1510F4D11A01C0DD24A4FE0FC080E323
:1027000090E0B4010E940E15A2FE1FC0A1FE03C0FE
:1027100088E590E010C088E790E00DC0C50186789C
:102720009070009791F0A1FC02C080E201C08BE2A2
:1027300007FD8DE290E0B4010E940E1506C080E313
:1027400090E0B4010E940E15FA94EF14C0F3EA94DD
:10275000F101EE0DF11D808190E0B4010E940E1593
:10276000EE20A9F706C080E290E0B4010E940E15A9
:10277000DA94DD20C1F78ECCF4018681978102C006
:102780008FEF9FEF65960FB6F894DEBF0FBECDBFFB
:10279000DF91CF911F910F91FF90EF90DF90CF903D
:1027A000BF90AF909F908F907F906F905F904F9071
:1027B0003F902F900895629FD001739FF001829FF8
:1027C000E00DF11D649FE00DF11D929FF00D839FC0
:1027D000F00D749FF00D659FF00D9927729FB00D5D
:1027E000E11DF91F639FB00DE11DF91FBD01CF0170
:1027F00011240895A1E21A2EAA1BBB1BFD010DC0D6
:10280000AA1FBB1FEE1FFF1FA217B307E407F507A0
:1028100020F0A21BB30BE40BF50B661F771F881F7C
:10282000991F1A9469F760957095809590959B0112
:10283000AC01BD01CF0108950790F691E02D0994F8
:10284000283008F027E03327DA01990F311D87FD82
:10285000916000966105710539F432602E5F3D93F9
:1028600030E32A95E1F708959F3F30F080387105F5
:10287000610509F03C5F3C5F3D93913008F0806852
:10288000911DDF93CF931F930F93FF92EF92192F18
:10289000987F9695E92F96959695E90FFF27E25137
:1028A000FF4F99273327EE24FF24A701E701059066
:1028B0000894079428F4360FE71EF81E491F511D8F
:1028C000660F771F881F991F0694A1F7059007943C
:1028D00028F4E70EF81E491F561FC11D770F881FE9
:1028E000991F661F0694A1F70590079428F4F80E27
:1028F000491F561FC71FD11D880F991F661F771FBD
:102900000694A1F70590079420F4490F561FC71F9E
:10291000D81F990F661F771F881F0694A9F7849107
:102920001095177041F0D695C79557954795F79430
:10293000E7941A95C1F7E4E9F0E0689415901591D1
:1029400035916591959105907FE27395E118F10AB3
:10295000430B560BC90BD009C0F7E10CF11E431F06
:10296000561FC91FD01D7EF4703311F48A95E6CF2F
:10297000E894015030F0080F0AF40027021708F419
:10298000202F2395022F7A3328F079E37D932A951F
:10299000E9F710C07D932A9589F606949795679577
:1029A000379517951794E118F10A430B560BC90B8D
:1029B000D00998F023957E9173957A3308F070E3EF
:1029C0007C932013B8F77E9170617D9330F08395EE
:1029D00071E37D9370E32A95E1F71124EF90FF9066
:1029E0000F911F91CF91DF91992787FD90950895C1
:1029F000FC010590615070400110D8F780959095CA
:102A00008E0F9F1F0895FC016150704001900110CE
:102A1000D8F7809590958E0F9F1F08950F931F9361
:102A2000CF93DF938C01EB018B8181FF1BC082FF71
:102A30000DC02E813F818C819D812817390764F458
:102A4000E881F9810193F983E88306C0E885F98577
:102A5000802F0995009731F48E819F8101969F8385
:102A60008E8302C00FEF1FEFC801DF91CF911F913E
:102A70000F9108950F931F93CF93DF93CDB7DEB7D8
:102A80002E970FB6F894DEBF0FBECDBF8C0186E047
:102A90008C831A83098377FF02C060E070E861507D
:102AA00070407E836D83CE010196BA01A9010E9418
:102AB00026104D815E8157FD0AC02F81388542174F
:102AC00053070CF49A01020F131FF80110822E967F
:102AD0000FB6F894DEBF0FBECDBFDF91CF911F912F
:102AE0000F910895FA01AA27283051F1203181F180
:102AF000E8946F936E7F6E5F7F4F8F4F9F4FAF4F06
:102B0000B1E03ED0B4E03CD0670F781F891F9A1F18
:102B1000A11D680F791F8A1F911DA11D6A0F711DCC
:102B2000811D911DA11D20D009F468943F912AE0D8
:102B3000269F11243019305D3193DEF6CF010895C0
:102B4000462F4770405D4193B3E00FD0C9F7F6CFF1
:102B5000462F4F70405D4A3318F0495D31FD4052B9
:102B6000419302D0A9F7EACFB4E0A695979587954F
:102B700077956795BA95C9F700976105710508952E
:102B80009B01AC010A2E06945795479537952795DA
:102B9000BA95C9F7620F731F841F951FA01D089572
:042BA000F894FFCFD7
:102BA4004D6567613132382B4E4D454120475053B6
:102BB4000A706F636B65746D616769632E6E65740B
:102BC40020202000256620534154733A2564202098
:102BD40020200A256620413A25646D20202020000B
:102BE400533A25322E326620423A25322E3266205E
:102BF4002020200A253032643A25303264202530E2
:102C040032642D253032642D25303264202020207A
:102C14000057616974696E6720666F72204750536C
:102C240020200A6669782E204E6F20446174612E3C
:102C340020202020202020004014544014542447F5
:102C44005047474100244750524D430007000500B8
:102C5400070004000300010002000600070005004D
:102C64000700040003000100020006002B002A00F4
:102C740095002C00900029009B009A009D009C0068
:042C8400980099001B
:00000001FF
